:040000000CEF00F011
:10000800FACF32F0FBCF33F0E9CF34F01FED04F034
:100018000AEF09F0000E0001B76F000E0001B66F7D
:1000280000016251D8B406D00301030E0001B96F74
:10003800030105D00101010E0001B96F0101000E95
:100048000001B86F000163671AD0000EC6D1010E17
:100058000001B6250001B66F000E0001B7210001AE
:10006800B76F000160A10ED0010E0001B65D700EE1
:100078000001B759D8A003D016EC03F003D0000153
:1000880060B1E5D700F000F000F000F00001000ECC
:100098000001A06F0001820E00019F6F0001B9C02E
:1000A800A2F00001B8C0A1F0000E0001A46F060E76
:1000B8000001A36F4BEC08F000019FC0B8F00001ED
:1000C800A0C0B9F0000183A705D000017A4B7B2BB3
:1000D80046EC09F000018351070B020AD8A406D0A8
:1000E800020E0001B85F000E0001B95B0001843107
:1000F800E832030B020AD8A417D00001000E000151
:10010800A06F0001880E00019F6F0001B9C0A2F026
:100118000001B8C0A1F0000E0001A46F020E00019A
:10012800A36F4BEC08F039D000018431E832030B9F
:10013800030AD8A438D00001000E0001A06F000106
:10014800880E00019F6F0001B9C0A2F00001B8C07D
:10015800A1F0000E0001A46F040E0001A36F4BEC88
:1001680008F000019FC0B8F00001A0C0B9F000017C
:10017800000E0001A06F00018C0E00019F6F0001AE
:10018800B9C0A2F00001B8C0A1F0000E0001A46F30
:10019800040E0001A36F4BEC08F000019FC0B8F0FB
:1001A8000001A0C0B9F086C090F087C091F088C067
:1001B80092F089C093F08AC094F08BC095F08CC0FF
:1001C80096F08DC097F08EC098F08FC099F000011E
:1001D8008439E832E832030B0009D8B426D000018C
:1001E8008431E832030B0009D8B41FD0000183BD65
:1001F8001CD00001000E0001A06F0001900E00014C
:100208009F6F0001B9C0A2F00001B8C0A1F0000EB4
:100218000001A46F020E0001A36F4BEC08F000016F
:100228009FC0B8F00001A0C0B9F000018439E832DD
:10023800E832030B020AD8A417D00001000E00010F
:10024800A06F0001920E00019F6F0001B9C0A2F0DB
:100258000001B8C0A1F0000E0001A46F020E000159
:10026800A36F4BEC08F03AD000018439E832E83249
:10027800030B030AD8A438D00001000E0001A06FB8
:100288000001920E00019F6F0001B9C0A2F00001A9
:10029800B8C0A1F0000E0001A46F040E0001A36F06
:1002A8004BEC08F000019FC0B8F00001A0C0B9F005
:1002B8000001000E0001A06F0001960E00019F6F63
:1002C8000001B9C0A2F00001B8C0A1F0000E000101
:1002D800A46F040E0001A36F4BEC08F000019FC04F
:1002E800B8F00001A0C0B9F00001B9C09CF000014D
:1002F800B8C09BF000016251D8B434D00001B851A5
:100308000008000182250001B46F0001B429000132
:100318009A6F030100510001B46FB56B030E000121
:10032800B427000EB5230301000E0001B425D96ED1
:100338000301030E0001B521DA6EDF5000019D6F45
:10034800030100510001B46FB56B040E0001B4271E
:10035800000EB5230301000E0001B425D96E030178
:10036800030E33D00001B8510008000182250001B6
:10037800B46F0001B42900019A6F01010051000116
:10038800B46FB56B030E0001B427000EB52301014D
:10039800000E0001B425D96E0101010E0001B5213E
:1003A800DA6EDF5000019D6F010100510001B46F4A
:1003B800B56B040E0001B427000EB5230101000E31
:1003C8000001B425D96E0101010E0001B521DA6ED4
:1003D800DF5000019E6F000163511200000E000102
:1003E800A96F020E0001A86F000E0001AB6F090E85
:1003F8000001AA6F030E0001AC6F6DEC08F000015C
:10040800AE6F0A30E832030B020AD8A423D00001E9
:10041800AEC0A8F00001A96B000E0001AB6F0C0E76
:100428000001AA6F020E0001AC6F6DEC08F000012C
:10043800AE6F0001AEC0A8F00001A96B000E00016C
:10044800AB6F0E0E0001AA6F020E0001AC6F6DECCF
:1004580008F03AD00A30E832030B030AD8A436D0A1
:100468000001AEC0A8F00001A96B000E0001AB6F3F
:100478000C0E0001AA6F020E0001AC6F6DEC08F0C3
:100488000001AE6F0001AEC0A8F00001A96B000E1C
:100498000001AB6F0E0E0001AA6F040E0001AC6FD5
:1004A8006DEC08F00001AE6F0001AEC0A8F00001CD
:1004B800A96B000E0001AB6F120E0001AA6F040EAB
:1004C8000001AC6F6DEC08F00001AE6F0A38E8323D
:1004D800E832030B0009D8B419D00A30E832030B0C
:1004E8000009D8A409BC12D00001AEC0A8F00001D0
:1004F800A96B000E0001AB6F160E0001AA6F020E69
:100508000001AC6F6DEC08F00001AE6F0A38E832FC
:10051800E832030B020AD8A411D00001AEC0A8F03B
:100528000001A96B000E0001AB6F180E0001AA6F45
:10053800020E0001AC6F6DEC08F029D00A38E832E1
:10054800E832030B030AD8A424D00001AEC0A8F0F7
:100558000001A96B000E0001AB6F180E0001AA6F15
:10056800040E0001AC6F6DEC08F00001AE6F0001E5
:10057800AEC0A8F00001A96B000E0001AB6F1C0E05
:100588000001AA6F040E0001AC6F6DEC08F00001C9
:10059800AE6F000E0001A36F000E0001A26F0001F4
:1005A800AE51FE0F0001A46FC5EC06F00001AEC00D
:1005B800A8F00001A96B000122C0ABF0000121C026
:1005C800AAF020C0ACF06DEC08F00001AE6F000E90
:1005D8000001A36F010E0001A26F0001AE51FE0FD2
:1005E8000001A46FC5EC06F00001608109AA03D0E0
:1005F8000001608302D00001609309AA04D00001C1
:10060800AD6BAD2B02D00001AD6B0001D890AD37BA
:100618000001D890AD3501090001A26F370EDAEC60
:1006280008F01200010E00017227000E000173236A
:1006380000017423000175230001609100016085A9
:10064800000160930001609D000E0001626F070EBB
:100658000001A26F550EDAEC08F0540EC1EC08F058
:100668000001B36FB3C0B2F0070E0001B217D8A4EF
:10067800F4D7010E0001A26F1B0EDAEC08F066C079
:10068800A5F067C0A6F068C0A7F069C0A8F06AC066
:10069800A9F06BC0AAF06CC0ABF06DC0ACF06EC036
:1006A800ADF06FC0AEF070C0AFF071C0B0F0C3EC89
:1006B80005F0020E0001A36F000E0001A26F030EE9
:1006C8000001A46FC5EC06F0020E0001A36F010E35
:1006D8000001A26F020E0001A46FC5EC06F0020E25
:1006E8000001A36F020E0001A26F800E0001A46F2B
:1006F800C5EC06F0020E0001A36F030E0001A26F05
:10070800700E0001A46FC5EC06F0020E0001A36F85
:10071800060E0001A26F900E0001A46FC5EC06F052
:10072800020E0001A36F070E0001A26F800E0001E8
:10073800A46FC5EC06F0020E0001A36F080E0001BD
:10074800A26F100E0001A46FC5EC06F0020E0001A6
:10075800A36F200E0001A26F210E0001A46FC5EC4B
:1007680006F0800E0001A26F750EDAEC08F0400E5C
:100778000001A26F7D0EDAEC08F0600E0001A26F96
:100788007F0EDAEC08F0020E0001A36F2F0E0001B5
:10079800A26F0F0E0001A46FC5EC06F0980E0001C1
:1007A800A26F310EDAEC08F0950E0001A26F5D0E13
:1007B800DAEC08F0020E0001A46F0F0E0001A36F1F
:1007C8006CEC07F00001B26FA00E0001B217000137
:1007D800B251A00AD8A4EED7F60E0001A26F650E9A
:1007E800DAEC08F0020E0001A36F000E0001A26F00
:1007F800030E0001A46FC5EC06F0020E0001A36F02
:10080800010E0001A26F020E0001A46FC5EC06F0F4
:1008180000016551D1EC07F0040E0001A26F6D0EC6
:10082800DAEC08F0000E0001A26F6D0EDAEC08F0A9
:1008380000F0010E12000600EACF35F0E1CF36F0E5
:10084800E2CF37F0D9CF38F0DACF39F0F3CF3AF03A
:10085800F4CF3BF0F6CF3CF0F7CF3DF0F8CF3EF0C9
:10086800F5CF3FF0620E33EC09F0406E40C005F062
:10087800F29240A668D0040E296E730E1FEC09F0A0
:10088800030E2B6E000E2A6EFFEC07F0020F436E6C
:10089800900E436405D000017E4B7F2B900E436E73
:1008A80000016251D8B404D04350FC0F030103D0B7
:1008B8004350FC0F0101006F010E446E2BD0000164
:1008C8006251D8B413D04450010D0301000EF32433
:1008D800D96E0301030EF420DA6E000E44242A6E4A
:1008E8002B6A030E2B22FFEC07F012D04450010DA7
:1008F8000101000EF324D96E0101010EF420DA6E15
:10090800000E44242A6E2B6A030E2B22FFEC07F0FC
:10091800DF6E442A4450435CD8B0D1D70001632B22
:10092800000120EE63F0020EDF6403D00001804B6B
:10093800812B010E296E1B0E1FEC09F0000E296E8B
:10094800730E1FEC09F040A037D000016091000140
:1009580060A332D0480E33EC09F0426E42C030F04A
:10096800010E301630463046000160513018FB0B3E
:1009780030180001606F42C030F0060E316ED8901A
:100988003032312EFCD730463046304600016051B7
:100998003018E70B30180001606F42C030F0200EAD
:1009A8003016303A3046000160513018DF0B3018ED
:1009B8000001606F000160933FC0F5FF3EC0F8FF83
:1009C8003DC0F7FF3CC0F6FF3BC0F4FF3AC0F3FF61
:1009D80039C0DAFF38C0D9FF37C0E2FF36C0E1FFBF
:1009E80035C0EAFF34C0E9FF33C0FBFF32C0FAFF6D
:1009F800110094849486F00E996EFFEC06F080EC5A
:100A080006F028EC08F0000E046E000E036E045089
:100A1800800A800F030ED8B4035CD8B00CD08E685F
:100A28001E0E66EC09F0000E8E6E1E0E66EC09F0C6
:100A3800034A042AECD782A610D0010E37EC07F03F
:100A4800000E906E02D07F0E8E6E82B6FCD7030E1B
:100A5800906E000E37EC07F0EED782B435D082B630
:100A68000CEF00F0000E046E000E036E0450800AB6
:100A7800800F030ED8B4035CD8B023D0020E906E5A
:100A88009E0E8E6EFA0E66EC09F0030E906E320E14
:100A980066EC09F0034A042AE9D782B6CCD70EECF3
:100AA80000F0066E000185510718D8B40AD085C039
:100AB80007F09BC0D9FF9CC0DAFFDF508E6E46EC72
:100AC80009F082B4B8D7E9D782A4B5D782B60CEFBB
:100AD80000F0000E046E000E036E0450800A800FB2
:100AE800030ED8B4035CD8B047D0020E906E0F0E38
:100AF8008E6EFA0E66EC09F0030E906E320E66ECFE
:100B080009F0034A042AE9D782B695D7000E226E67
:100B1800250E216E010E206E2EEC06F025C08EFFEC
:100B2800252A0A0E66EC09F0FA0E66EC09F00F0E9B
:100B380025641FD0000E256E1CD082B61DD02EEC69
:100B480006F0000E046E000E036E0450800A800F3B
:100B5800040ED8B4035CD8B00CD0000E8E6E640EB0
:100B680066EC09F08E68640E66EC09F0034A042A04
:100B7800ECD7000160B5E1D782A45DD7C5D7A5C081
:100B8800A2F0070EDAEC08F0A6C0A2F0090EDAEC23
:100B980008F0AFC0A2F0030EDAEC08F0B0C0A2F083
:100BA800050EDAEC08F0000E0001B16F17D0000155
:100BB800B151010D0001A70EF324D96E0001000EFA
:100BC800F420DA6EDF500001A26F0001B151020D6E
:100BD800F3500B0FDAEC08F00001B12B030E000103
:100BE800B165E5D7000E0001B16F17D00001B15112
:100BF800010D0001AB0EF324D96E0001000EF420A4
:100C0800DA6EDF500001A26F0001B151020DF350FE
:100C1800130FDAEC08F00001B12B030E0001B165E7
:100C2800E5D7AFC070F0B0C071F0A5C066F0A6C03F
:100C380067F0A7C068F0A8C069F0A9C06AF0AAC0A8
:100C48006BF0ABC06CF0ACC06DF0ADC06EF0AEC078
:100C58006FF01200000E0001B56F000E0001B46FB6
:100C68000A38E832E832030B020AD8A409D0000196
:100C780066C018F0000167C019F01A6A1B6A17D01D
:100C88000A38E832E832030B030AD8A410D068C047
:100C980018F069C019F06AC01AF06BC01BF06CC07C
:100CA8001CF06DC01DF06EC01EF06FC01FF064C058
:100CB8000BF00001642B1AD0010E0001B4250001CD
:100CC800B46F000E0001B5210001B56F000E0001E0
:100CD800B45DC00E0001B559D8A008D000F000F0EE
:100CE80000F000F000F016EC03F003D0000160B152
:100CF800E3D7F2EC01F012000001000E0001A06F32
:100D08000001600E00019F6F000E0001A26F000E2F
:100D18000001A16F000E0001A46F220E0001A36F55
:100D28008AEC08F0000E0001716F150E0001706F5B
:100D3800AA0E0001676F110E0001666F550E0001C3
:100D4800686FAA0E0001696F550E00016A6FAA0E3E
:100D580000016B6F550E00016C6FAA0E00016D6FDC
:100D6800550E00016E6FAA0E00016F6F160E00017E
:100D7800656F16EC03F00001B46FF288F19CF28EF7
:100D88001200000EF2B8010E0001A76FF2988C90C5
:100D98000001A2C0A5F00001A3C0A6F00001D890F0
:100DA800A633A5330001D890A633A5330001D89007
:100DB800A633A5330001A5517F0B800980EC09F00B
:100DC8000001A239E846E00BE00B100980EC09F0BD
:100DD8000001A45180EC09F08C800001A7B102D079
:100DE800F29801D0F28800F000F000F000F000F076
:100DF80000F000F012000F0EC16E000E896E000E9A
:100E08008A6E000E8B6E000E8C6E000E8D6E000EBC
:100E18008E6E000E8F6E000E926E93689468200E90
:100E2800956E9668000E976E000E986ED09E9590FF
:100E38008C8095948C849380958A9598959C8C98B1
:100E48008C9C95928C82000E00019F6F000E000111
:100E5800A06F020EA1EC07F000F0F292F29CF28E65
:100E680081A0F28212000001B46F0001B451D8B41D
:100E78002CD0020E0001A36F2F0E0001A26F080EE6
:100E88000001A46FC5EC06F00F0E0001A26F690EF9
:100E9800DAEC08F0000E0001A26F670EDAEC08F039
:100EA800040E0001A26F550EDAEC08F0800E000166
:100EB800A26F450EDAEC08F0800E0001A26F6B0EEF
:100EC800DAEC08F00001608D02D016EC03F0120095
:100ED800000E0001A86FF2A803D0010E0001A86F50
:100EE800F2988C900001A3C0A5F00001A4C0A6F060
:100EF8000001D890A633A5330001D890A633A533B6
:100F08000001D890A633A5330001A5517F0B8009B5
:100F180080EC09F00001A339E846E00BE00BA6ECF1
:100F280008F00001A76F8C800001A8B102D0F298E8
:100F380001D0F2880001A75112000001A16F3F0EF5
:100F48006416000E636E0001A15163120001A051E6
:100F5800641205D0648C14D0648C638811D00001AD
:100F68009F51000AD8B4F6D7020AD8B4F5D7010AB7
:100F7800D8B4F3D705D0958E958C0BD0959C09D015
:100F88000001A151040AD8B4F6D7010AD8B4F4D79D
:100F9800F5D7958A9598638A12000001A86F0A0E02
:100FA8000001A86527D01A0E0001A86501D022D03B
:100FB8000001A8511A0AD8B41DD0A8C065F0020EC5
:100FC8000001A36F000E0001A26F0001A839F00B09
:100FD800500F03090001A46FC5EC06F0040E0001D0
:100FE800A26F6D0EDAEC08F0000E0001A26F6D0E14
:100FF800DAEC08F01200000E2F6EF2A802D0010EF3
:101008002F6EF2988C902AC02CF02BC02DF0D8901F
:101018002D322C32D8902D322C32D8902D322C32C1
:101028002C507F0B800994EC09F02A38E846E00B35
:10103800E00BF3EC08F02E6E8C802FB002D0F29803
:1010480001D0F2882E5012000950F80B0109096EE0
:1010580009960998098A098C0A50F30B08090A6E3F
:10106800CF0E0A163F0E0A1670C00CF071C00DF0B4
:10107800000166C00EF0000167C00FF0106A116A27
:101088000101010E226E0101900E216E120010D096
:10109800A1C0D9FFA2C0DAFF9FC0E1FFA0C0E2FF54
:1010A800DFCFE7FF0001A14BA22B00019F4BA02B34
:1010B8000001A307D8A0A4070001A329D8B4A42934
:1010C800D8A4E6D70001A2C0A0F00001A1C09FF0FB
:1010D800120013D0A8C0A2F0A9C0A3F0AAC0D9FFDB
:1010E800ABC0DAFFDF500001A46FC5EC06F00001C9
:1010F800AA4BAB2B0001A84BA92B0001AC070001A0
:10110800AC29D8A4E7D70001A85112000001A0C05B
:10111800A6F000019FC0A5F00AD0A5C0D9FFA6C0BF
:10112800DAFF0001A1C0DFFF0001A54BA62B0001DB
:10113800A307D8A0A4070001A329D8B4A429D8B428
:101148001200EBD70001A16F8C9000F00001A151B3
:1011580056EC09F064A0FED700F000F000F000F0B3
:1011680000F000F064A0FED78BEC09F00001A26F3C
:101178008C8000F00001A25112000001A36F000E44
:10118800F2B8010E0001A56FF2988C900001A351EE
:10119800A6EC08F00001A46F8C800001A5B102D074
:1011A800F29801D0F2880001A45112000001A36F47
:1011B800000EF2B8010E0001A46FF2988C900001A5
:1011C800A35180EC09F00001A25180EC09F08C8059
:1011D8000001A4B102D0F29801D0F2881200286E62
:1011E8008C9000F0285074EC09F064A0FED700F051
:1011F80000F000F000F000F000F064A0FED79DECD5
:1012080009F0296E8C8000F02950120000EE60F081
:101218003F0EEE6AE806FDE101EE90F0670EEE6A19
:10122800E806FDE100EE01F0250EEE6AE806FDE1B4
:101238000001FDEF04F02A6E000EF2B8010E2B6ECD
:10124800F2988C902A5094EC09F0295094EC09F00B
:101258008C802BB002D0F29801D0F28812002A6E4E
:10126800000EF2B8010E2C6EF2988C902A50F3EC16
:1012780008F02B6E8C802CB002D0F29801D0F28846
:101288002B50120000016351D8B408D00001630745
:1012980000016229010B0001626F03D000017C4B41
:1012A8007D2B12000001A06F66CF9FF0A49E639E65
:1012B800A0C066FF63AE02D0FF0E03D0A4AEFED777
:1012C800000E12000001A06F0D0E00019F6FFC0EB2
:1012D800E82EFED79F2FFCD70001A02FF5D71200CC
:1012E800276E66CF26F0A49E639E27C066FF63BE66
:1012F80002D0A4AEFED712000001A16F8C9000F0BE
:101308000001A15156EC09F064B01200FDD766CF78
:101318009FF0A49E000E666EA4AEFED76650120023
:10132800286E8C9000F0285074EC09F064B012001C
:10133800FDD766CF26F0A49E000E666EA4AEFED73B
:0413480066501200D9
:020000040020DA
:08000000FFFFFFFFFFFFFFFF00
:020000040030CA
:0E000000FF02191EF38380FFFFC0FFE0FF40E8
:00000001FF
